:020000040000fa
:080000000002040000000000f2
:020000040000fa
:10000800d2020000d2020000d2020000d202000098
:10001800d2020000d2020000d2020000d202000088
:10002800d2020000d2020000d20200000e0d000031
:10003800d2020000d2020000d2020000d202000068
:10004800d2020000d2020000d2020000d202000058
:10005800d2020000d2020000d2020000d202000048
:10006800d2020000d2020000d2020000d202000038
:10007800d2020000d2020000d2020000d202000028
:10008800d2020000d2020000d2020000d202000018
:10009800d2020000d2020000d2020000d202000008
:1000a800d2020000d2020000d2020000d2020000f8
:1000b800d2020000d2020000d2020000d2020000e8
:1000c800d2020000d2020000d2020000d2020000d8
:1000d800d2020000d2020000d2020000d2020000c8
:1000e800d2020000d2020000d2020000d2020000b8
:1000f800d2020000d2020000d2020000d2020000a8
:10010800d2020000d2020000d2020000d202000097
:10011800d2020000d2020000d2020000d202000087
:10012800d2020000d2020000d2020000d202000077
:10013800d2020000d2020000d2020000d202000067
:10014800d2020000d2020000d2020000d202000057
:10015800d2020000d2020000d2020000d202000047
:10016800d2020000d2020000d2020000d202000037
:10017800d2020000d2020000d2020000d202000027
:10018800d2020000d2020000d2020000d202000017
:10019800d2020000d2020000d2020000d202000007
:1001a800d2020000d2020000d2020000d2020000f7
:1001b800d2020000d2020000d2020000d2020000e7
:1001c800d2020000d2020000d2020000d2020000d7
:1001d800d2020000d2020000d2020000d2020000c7
:1001e800d2020000d2020000d2020000d2020000b7
:0801f800d2020000d202000057
:020000040000fa
:10020800d2020000d2020000d2020000d202000096
:10021800d2020000d2020000d2020000d202000086
:10022800d2020000d2020000d20200000e0d00002f
:10023800d2020000d2020000d2020000d202000066
:10024800d2020000d2020000d2020000d202000056
:10025800d2020000d2020000d2020000d202000046
:10026800d2020000d2020000d2020000d202000036
:10027800d2020000d2020000d2020000d202000026
:10028800d2020000d2020000d2020000d202000016
:10029800d2020000d2020000d2020000d202000006
:1002a800d2020000d2020000d2020000d2020000f6
:1002b800d2020000d2020000d2020000d2020000e6
:1002c800d2020000d2020000d2020000d2020000d6
:1002d800d2020000d2020000d2020000d2020000c6
:1002e800d2020000d2020000d2020000d2020000b6
:1002f800d2020000d2020000d2020000d2020000a6
:10030800d2020000d2020000d2020000d202000095
:10031800d2020000d2020000d2020000d202000085
:10032800d2020000d2020000d2020000d202000075
:10033800d2020000d2020000d2020000d202000065
:10034800d2020000d2020000d2020000d202000055
:10035800d2020000d2020000d2020000d202000045
:10036800d2020000d2020000d2020000d202000035
:10037800d2020000d2020000d2020000d202000025
:10038800d2020000d2020000d2020000d202000015
:10039800d2020000d2020000d2020000d202000005
:1003a800d2020000d2020000d2020000d2020000f5
:1003b800d2020000d2020000d2020000d2020000e5
:1003c800d2020000d2020000d2020000d2020000d5
:1003d800d2020000d2020000d2020000d2020000c5
:1003e800d2020000d2020000d2020000d2020000b5
:0803f800d2020000d202000055
:020000040000fa
:100400002f8520000e7f22000e01880000000000d2
:10041000000020000000e000020032000001200087
:10042000200288000c00070000eb200001002000e3
:100430000f000700000020000000e0000200320072
:100440000000020000000000e00e020000000000ba
:100450000040da000000fe00200020000000e00064
:100460000200320010002000900188000000060009
:10047000a1028800800078000000eb001a0037001d
:10048000e280400054a0b4009101ba00e280400034
:1004900054a0b4009102ba00e280400054a0b4001d
:1004a0000002eb00472bde00f507b200a601880032
:1004b000602ce10008003a000049eb000201e8006e
:1004c000020039003420ec0002f0a0008301e900b2
:1004d000f9ff3e00040037006128e100010032000e
:1004e0000082eb00040007001101ba000200e000e6
:1004f000e3ff3a000000060004d0a300e20f490029
:100500001c003900810278003549ba000201e80078
:10051000020039003420ec0002f0a0008301e90061
:100520000f0032002549ba000201e800020039003c
:100530003420ec0002f0a0008301e9000800320042
:100540000400e0000600320015c9ba000201e8000c
:10055000020039003420ec0002f0a0008301e90021
:100560008180e80054a0b4000300e000e2ff3a00fc
:10057000000006009102ba00055978008301e900e5
:10058000f7ff3200c82ade00055978008301e90030
:10059000f3ff32000400e000f1ff320011d9ba008d
:0c05a000eeff37000040da000000fe0013
:020000040000fa
:1005ac000000fa0080002800b02888001825ef0011
:1005bc001a25ef001c25ef0030102000f0288800d1
:1005cc002025ef002225ef002425ef002625ef0043
:1005dc002825ef002a25ef001945a800608220008d
:1005ec00104188006082200000418800e0822000d9
:1005fc00f0408800e0822000e0408800204180002c
:10060c000010a00020418800204180000090a00034
:10061c0020418800204180000080a10020418800fa
:10062c00204180000000a100204188000080fa00d9
:10063c00000006000000fa00d9ff07000080fa0055
:10064c00000006000200fa0021418000002020007a
:10065c00008060000000e00026003a0087e0a9005e
:10066c000000eb00000f7800190037001e0fe800a7
:10067c0010418000104078000080fb00d0288800da
:10068c00104180000000e8001041880011418000fa
:10069c00e0822000808f500002003a00608220002f
:1006ac0010418800204180000080a100204188007a
:1006bc001141800000418000808f500004003a00fe
:1006cc00204180000090a000204188000a003700e3
:1006dc001e0078000000e00007003c00c1288000ec
:1006ec0000202000008060000000e000dfff3200ee
:1006fc0001003700000000000080fa000000060036
:10070c000000fa00cfff07000080fa00000006008e
:10071c000200fa000000eb00000f7800190037000f
:10072c001e0fe800e0408000e12880008140780046
:10073c0001487800e04080000000e800e0408800bc
:10074c00e140800060832000808f500002003a005e
:10075c00e0822000e0408800204180000010a100d1
:10076c0020418800e1408000f0408000808f5000e4
:10077c0004003a00204180000000a00020418800c5
:10078c00070037001e0078000000e00004003c0069
:10079c00c0288000610060000000e000e0ff3a002b
:1007ac0087c0a9000080fa00000006000000fa00d3
:1007bc00d7ff07000080fa00000006000000fa00d6
:1007cc00c0288000620060000000e00001003200e0
:1007dc001825a9008c40a9000080fa000000060032
:1007ec000000fa00f5ff07000080fa000000060088
:1007fc000200fa000040eb00004f7800f04080004f
:10080c00104f7800f04080000000e800f0408800b5
:10081c00f140800060832000808f500002003a007d
:10082c00e0822000f0408800f1408000e040800031
:10083c00808f500003003a00204180000010a0007f
:10084c0020418800204180000000a1002041880048
:10085c001e4078000080fa00000006000000fa003c
:10086c00e3ff07000080fa00000006000600fa0013
:10087c00881f780010079800210798000000eb00f3
:10088c00000f7800090037002041800062006000f2
:10089c000000e0000a003a001e0090001e04400018
:1008ac00d3ff0700004c78001e0fe8002e009000cc
:1008bc009e007800808f5000f3ff39000100370054
:1008cc00000000001e0078004f0478000080fa0041
:1008dc00000006000400fa00000f780011079800d1
:1008ec009e0090001e007800e0ff07000080fa00d8
:1008fc00000006000200fa00004f78000041800062
:10090c001e487800004180000000e800004188008b
:10091c0001418000e0822000808f500002003a00ec
:10092c006082200000418800204180000090a100de
:10093c00204188001141800000418000808f5000d0
:10094c0003003a00204180000080a0002041880074
:10095c000080fa00000006000200fa00004f780048
:10096c001e407800e3ff07000080fa00000006003c
:10097c000600fa0010079800210798000000eb0011
:10098c00000f78000a003700214180000010200081
:10099c00008060000000e0000a003a001e00900099
:1009ac001e004000104078001e0fe800d1ff070029
:1009bc002e0090009e007800808f5000f2ff3900ce
:1009cc0001003700000000001e0078000080fa00d3
:1009dc00000006000400fa00000f780011079800d0
:1009ec009e0090001e007800e1ff07000080fa00d6
:1009fc00000006000200fa000000eb00000f780077
:100a0c002141800000102000008060000000e00008
:100a1c00010032001e30a000214180000020200087
:100a2c00008060000000e000010032001e40a000c9
:100a3c0020418000610060000000e00001003200f5
:100a4c001e00a00020418000620060000000e00059
:100a5c00020032001e20a000010037001e10a00072
:100a6c001e0078000080fa00000006000000fa006a
:100a7c00e0ff07000080fa00000006000200fa0008
:100a8c00000f7800f04080009e0040006083200042
:100a9c00808f500008003600f04080009e0040001f
:100aac00608320000000ea0000804000e18220000a
:100abc006140780003003700f04080001e004000c9
:100acc00104078000080fa00000006000200fa00d6
:100adc00000f78001e007800e8ff07000080fa0085
:100aec00000006000000fa00204180006100600058
:100afc000000e0000f003a00f1408000e040800070
:100b0c00808f500005003600f04080008000780097
:100b1c00e04080000080500007003700f04080006b
:100b2c0080007800e04080000080500068004000a9
:100b3c00010037000000eb000080fa000000060006
:100b4c000000fa00e7ff07000080fa000000060032
:100b5c000000fa002141800000102000008060009d
:100b6c000000e0000f003a001141800000418000bd
:100b7c00808f500005003600104180008000780006
:100b8c0000418000008050000700370010418000b9
:100b9c008000780000418000008050006800400018
:100bac00010037000000eb000080fa000000060096
:100bbc000000fa00e6ff07000080fa0000000600c3
:100bcc000000fa00204180000000d100614060006c
:100bdc000080fb0000f0a7000000ea000000ea0023
:100bec004f00de00004078000080fa000000060094
:100bfc000000fa00f2ff07000080fa000000060077
:100c0c000000fa00204180004800de0061406000d6
:100c1c000080fb0000f0a7000000ea000000ea00e2
:100c2c004f00de00004078000080fa000000060053
:100c3c000000fa00f2ff07000080fa000000060036
:100c4c000000fa00c02880000080fa0000000600b6
:100c5c000000fa00faff07000080fa00000006000e
:100c6c000000fa0080002800002888000225ef0010
:100c7c000425ef000625ef003010200040288800e6
:100c8c000a25ef000c25ef000e25ef001025ef00d4
:100c9c001225ef001425ef000345a8000084200066
:100cac00e041880000842000d0418800808420002e
:100cbc00c041880080842000b0418800f041800051
:100ccc000010a000f0418800f04180000090a000ce
:100cdc00f0418800f04180000080a100f0418800c4
:100cec00f04180000000a100f04188000080fa0073
:100cfc00000006000000fa00d9ff07000080fa008f
:100d0c00000006000200fa00f141800000202000e3
:100d1c00008060000000e00026003a008580a900f9
:100d2c000000eb00000f7800190037001e0fe800e0
:100d3c00e0418000104078000080fb0020288800f3
:100d4c00e04180000000e800e0418800e1418000c3
:100d5c0080842000808f500002003a000084200024
:100d6c00e0418800f04180000080a100f041880043
:100d7c00e1418000d0418000808f500004003a0097
:100d8c00f04180000090a000f04188000a0037007c
:100d9c001e0078000000e00007003c0011288000d5
:100dac0000202000008060000000e000dfff320027
:100dbc0001003700000000000080fa00000006006f
:100dcc000000fa00cfff07000080fa0000000600c8
:100ddc000200fa000000eb00000f78001900370049
:100dec001e0fe800b041800031288000814078005f
:100dfc0001487800b04180000000e800b041880054
:100e0c00b141800000852000808f500002003a0024
:100e1c0080842000b0418800f04180000010a100c7
:100e2c00f0418800b1418000c0418000808f5000ab
:100e3c0004003a00f04180000000a000f04188005e
:100e4c00070037001e0078000000e00004003c00a2
:100e5c0010288000610060000000e000e0ff3a0014
:100e6c008560a9000080fa00000006000000fa006e
:100e7c00d7ff07000080fa00000006000000fa000f
:100e8c0010288000620060000000e00001003200c9
:100e9c000225a9008c20a9000080fa0000000600a1
:100eac000000fa00f5ff07000080fa0000000600c1
:100ebc000200fa000040eb00004f7800c0418000b7
:100ecc00104f7800c04180000000e800c04188004d
:100edc00c141800000852000808f500002003a0044
:100eec0080842000c0418800c1418000b041800056
:100efc00808f500003003a00f04180000010a000e9
:100f0c00f0418800f04180000000a100f041880011
:100f1c001e4078000080fa00000006000000fa0075
:100f2c00e3ff07000080fa00000006000600fa004c
:100f3c00881f780010079800210798000000eb002c
:100f4c00000f780009003700f0418000620060005b
:100f5c000000e0000a003a001e0090001e04400051
:100f6c00d3ff0700004c78001e0fe8002e00900005
:100f7c009e007800808f5000f3ff3900010037008d
:100f8c00000000001e0078004f0478000080fa007a
:100f9c00000006000400fa00000f7800110798000a
:100fac009e0090001e007800e0ff07000080fa0011
:100fbc00000006000200fa00004f7800d0418000cb
:100fcc001e487800d04180000000e800d041880025
:100fdc00d141800080842000808f500002003a00b4
:100fec0000842000d0418800f04180000090a100d6
:100ffc00f0418800e1418000d0418000808f50009a
:10100c0003003a00f04180000080a000f04188000d
:10101c000080fa00000006000200fa00004f780081
:10102c001e407800e3ff07000080fa000000060075
:10103c000600fa0010079800210798000000eb004a
:10104c00000f78000a003700f141800000102000ea
:10105c00008060000000e0000a003a001e009000d2
:10106c001e004000104078001e0fe800d1ff070062
:10107c002e0090009e007800808f5000f2ff390007
:10108c0001003700000000001e0078000080fa000c
:10109c00000006000400fa00000f78001107980009
:1010ac009e0090001e007800e1ff07000080fa000f
:1010bc00000006000200fa000000eb00000f7800b0
:1010cc00f141800000102000008060000000e00072
:1010dc00010032001e30a000f141800000202000f1
:1010ec00008060000000e000010032001e40a00003
:1010fc00f0418000610060000000e000010032005f
:10110c001e00a000f0418000620060000000e000c2
:10111c00020032001e20a000010037001e10a000ab
:10112c001e0078000080fa00000006000000fa00a3
:10113c00e0ff07000080fa00000006000200fa0041
:10114c00000f7800c04180009e0040000085200008
:10115c00808f500008003600c04180009e00400087
:10116c00008520000000ea000080400081842000ff
:10117c006140780003003700c04180001e00400031
:10118c00104078000080fa00000006000200fa000f
:10119c00000f78001e007800e8ff07000080fa00be
:1011ac00000006000000fa00f041800061006000c1
:1011bc000000e0000f003a00c1418000b041800007
:1011cc00808f500005003600c04180008000780000
:1011dc00b04180000080500007003700c041800003
:1011ec0080007800b0418000008050006800400012
:1011fc00010037000000eb000080fa000000060040
:10120c000000fa00e7ff07000080fa00000006006b
:10121c000000fa00f1418000001020000080600006
:10122c000000e0000f003a00e1418000d041800056
:10123c00808f500005003600e0418000800078006f
:10124c00d04180000080500007003700e041800052
:10125c0080007800d0418000008050006800400081
:10126c00010037000000eb000080fa0000000600cf
:10127c000000fa00e6ff07000080fa0000000600fc
:10128c000000fa00f04180000000d10061406000d5
:10129c000080fb0000f0a7000000ea000000ea005c
:1012ac004f00de00004078000080fa0000000600cd
:1012bc000000fa00f2ff07000080fa0000000600b0
:1012cc000000fa00f04180004800de006140600040
:1012dc000080fb0000f0a7000000ea000000ea001c
:1012ec004f00de00004078000080fa00000006008d
:1012fc000000fa00f2ff07000080fa000000060070
:10130c000000fa00102880000080fa00000006009f
:10131c000000fa00faff07000080fa000000060047
:10132c000000fa0080002800602988002e25ef00bc
:10133c003025ef003225ef0030102000a029880066
:10134c003625ef002f45a800c080200040408800c3
:10135c00c080200030408800408120002040880060
:10136c004081200010408800504080000010a000f8
:10137c0050408800504080000090a00050408800f1
:10138c00504080000080a1005040880050408000f8
:10139c000000a100504088000080fa000000060008
:1013ac000000fa00deff07000080fa0000000600d3
:1013bc000200fa00514080000020200000806000f4
:1013cc000000e00026003a008e60a9000000eb004f
:1013dc00000f7800190037001e0fe8004040800015
:1013ec00104078000080fb0080298800404080007d
:1013fc000000e8004040880041408000408120000f
:10140c00808f500002003a00c080200040408800cd
:10141c00504080000080a100504088004140800076
:10142c0030408000808f500004003a005040800013
:10143c000090a000504088000a0037001e00780081
:10144c000000e00007003c00712980000020200013
:10145c00008060000000e000dfff32000100370078
:10146c00000000000080fa00000006000000fa00f6
:10147c00cfff07000080fa00000006000200fa000f
:10148c000000eb00000f7800190037001e0fe80079
:10149c00104080009129800081407800014878003c
:1014ac00104080000000e8001040880011408000cf
:1014bc00c0812000808f500002003a004081200043
:1014cc0010408800504080000010a100504088005f
:1014dc001140800020408000808f500004003a00b2
:1014ec00504080000000a0005040880007003700ea
:1014fc001e0078000000e00004003c007029800011
:10150c00610060000000e000e0ff3a008e40a9009e
:10151c000080fa00000006000000fa00d7ff070068
:10152c000080fa00000006000000fa00702980001c
:10153c00620060000000e000010032002e25a900ce
:10154c008e20a9000080fa00000006000000fa00be
:10155c00f5ff07000080fa00000006000200fa0008
:10156c000040eb00004f780020408000104f7800c6
:10157c00204080000000e8002040880021408000ce
:10158c00c0812000808f500002003a004081200072
:10159c00204088002140800010408000808f500047
:1015ac0003003a00504080000010a000504088001a
:1015bc00504080000000a100504088001e40780080
:1015cc000080fa00000006000000fa00e3ff0700ac
:1015dc000080fa00000006000600fa00881f780060
:1015ec0010079800210798000000eb00000f78000e
:1015fc000900370050408000620060000000e000ed
:10160c000a003a001e0090001e044000d3ff0700a1
:10161c00004c78001e0fe8002e0090009e00780011
:10162c00808f5000f3ff39000100370000000000ec
:10163c001e0078004f0478000080fa0000000600bd
:10164c000400fa00000f7800110798009e0090002b
:10165c001e007800e0ff07000080fa000000060082
:10166c000200fa00004f7800304080001e487800dd
:10167c00304080000000e80030408800314080009d
:10168c0040812000808f500002003a00c080200072
:10169c0030408800504080000090a10050408800ed
:1016ac004140800030408000808f500003003a00a1
:1016bc00504080000080a000504088000080fa005c
:1016cc00000006000200fa00004f78001e4078006f
:1016dc00e3ff07000080fa00000006000600fa0095
:1016ec0010079800210798000000eb00000f78000d
:1016fc000a0037005140800000102000008060007c
:10170c000000e0000a003a001e0090001e0040009d
:10171c00104078001e0fe800d1ff07002e0090004b
:10172c009e007800808f5000f2ff390001003700d6
:10173c00000000001e0078000080fa000000060087
:10174c000400fa00000f7800110798009e0090002a
:10175c001e007800e1ff07000080fa000000060080
:10176c000200fa000000eb00000f780051408000ee
:10177c0000102000008060000000e000010032003a
:10178c001e30a0005140800000202000008060002e
:10179c000000e000010032001e40a000504080001c
:1017ac00610060000000e000010032001e00a0009b
:1017bc0050408000620060000000e0000200320037
:1017cc001e20a000010037001e10a0001e00780093
:1017dc000080fa00000006000000fa00e0ff07009d
:1017ec000080fa00000006000200fa00000f7800ea
:1017fc00204080009e004000c0812000808f50005f
:10180c0008003600204080009e004000c08120006f
:10181c000000ea0000804000418120006140780017
:10182c0003003700204080001e004000104078006c
:10183c000080fa00000006000200fa00000f780099
:10184c001e007800e8ff07000080fa000000060088
:10185c000000fa0050408000610060000000e000d1
:10186c000f003a002140800010408000808f500013
:10187c000500360020408000800078001040800079
:10188c000080500007003700204080008000780066
:10189c0010408000008050006800400001003700bc
:1018ac000000eb000080fa00000006000000fa00c7
:1018bc00e7ff07000080fa00000006000000fa00b5
:1018cc005140800000102000008060000000e0000b
:1018dc000f003a004140800030408000808f500063
:1018ec0005003600404080008000780030408000c9
:1018fc0000805000070037004040800080007800d6
:10190c00304080000080500068004000010037002b
:10191c000000eb000080fa00000006000000fa0056
:10192c00e6ff07000080fa00000006000000fa0045
:10193c00504080000000d100614060000080fb003e
:10194c0000f0a7000000ea000000ea004f00de00f3
:10195c00004078000080fa00000006000000fa0049
:10196c00f2ff07000080fa00000006000000fa00f9
:10197c00504080004800de00614060000080fb00a9
:10198c0000f0a7000000ea000000ea004f00de00b3
:10199c00004078000080fa00000006000000fa0009
:1019ac00f2ff07000080fa00000006000000fa00b9
:1019bc00702980000080fa00000006000000fa0088
:1019cc00faff07000080fa00000006000000fa0091
:1019dc0000032800801288004c22ef00b0c42400c1
:1019ec00701288008460a9009460a8000085200013
:1019fc008040eb00014878000080fa0000000600ef
:101a0c000000fa00f1ff07000080fa000000060059
:101a1c003600f800809fbe00829fbe00849fbe00ef
:101a2c00869fbe000000fa003e00070010852000d3
:101a3c00104078008040e8001085200001487800b4
:101a4c000085200011c0b300014878008460a90013
:101a5c000080fa004f03be004f02be004f01be00d3
:101a6c004f00be003600f900004006000200fa00ec
:101a7c00000f78009e00780071128800008520000d
:101a8c008040eb00014878000080fa00000006005e
:101a9c000200fa00000f78001e007800f3ff070028
:101aac000080fa00000006000000fa0070128000ae
:101abc000080fa00000006000000fa00faff0700a0
:101acc000080fa00000006000200fa00000f780007
:101adc009e00780061128800008520008040eb0099
:101aec00014878000080fa00000006000200fa00ad
:101afc00000f78001e007800f3ff07000080fa004a
:101b0c00000006000000fa00601280000080fa005d
:101b1c00000006000000fa00faff07000080fa003f
:101b2c00000006000000fa00004080000000e80001
:101b3c00004088000080fa00000006000000fa0057
:101b4c00008520008040eb00014878009460a800dc
:101b5c0051e2a8000080fa00000006000000fa0024
:101b6c00f6ff07000080fa00000006000000fa00f3
:101b7c0051e2a9009460a9000080fa000000060060
:101b8c000000fa00f9ff07000080fa0000000600d0
:101b9c000200fa0000852000104f78001e407800eb
:101bac000004e00003003200008520008040eb00c0
:101bbc00014878001e4078000080fa000000060002
:101bcc000000fa00f2ff07000080fa000000060097
:101bdc000000fa0010852000104078000080fa0008
:101bec00000006000000fa00f9ff07000080fa0070
:101bfc00000006000000fa00108520008040eb0079
:101c0c00014878000080fa00000006000000fa008d
:101c1c00f8ff07000080fa00000006000000fa0040
:101c2c008421ef00d0002000000c88008e21ef00f2
:101c3c0000e02800500c8800c0002000400c8800f8
:101c4c009221ef0001088000f00b20000081600061
:101c5c0060042000710520000310200080497800ea
:101c6c008149780082497800811d800000fc2f009a
:101c7c00008060005000b300801d8800e11e8000d1
:101c8c0000fc2f00008060003000b300e01e8800d4
:101c9c00f11e800000fc2f00008060005000b3009b
:101cac00f01e8800911d800000fc2f000080600059
:101cbc009000b300901d8800211f800000fc2f00b5
:101ccc00008060003001b300201f8800711d80006f
:101cdc00f00f2c008080600000f0200001007000ec
:101cec00701d8800010880000004200001017000b4
:101cfc00600420007105200003102000804978004a
:101d0c0081497800824978000080fa0000000600c2
:101d1c000000fa0008000700c0ff07001d000700c4
:101d2c00cffb07001efa07007dfd070027ff070009
:101d3c000080fa00000006000000fa0000122300e8
:101d4c00100888000621ef000021a9000080fa008d
:041d5c00000006007d
:020000040000fa
:101d6000020800001a000000800000001c080000ab
:101d70001a00000080000000360800001a00000071
:101d80008000000000080000020000008000000049
:101d90005008000002000000800000000000000069
:020000040000fa
:101da0000000fa002005800000c0a00000d0a100c3
:101db00000e0a100200588000080fa000000060075
:0c1dc0000000fa00d5ff0700ffff37000d
:020000040000fa
:020000040002f8
:04aff000ffff00005f
:020000040000fa
:020000040002f8
:04aff400fffe00005c
:020000040000fa
:020000040002f8
:04aff800bdba0000de
:020000040000fa
:020000040002f8
:04affc003f3e0000d4
:00000001FF
