:020000040000fa
:080000000002040000000000f2
:020000040000fa
:10000800d2020000d2020000d2020000d202000098
:10001800d2020000d2020000d2020000d202000088
:10002800d2020000d2020000d20200000026000026
:10003800d2020000d2020000d2020000d202000068
:10004800d2020000d2020000d2020000fa19000019
:10005800a0190000d2020000d2020000d202000063
:10006800d2020000d2020000d2020000d202000038
:10007800d2020000d2020000d2020000d202000028
:10008800d2020000d2020000d2020000d202000018
:10009800d2020000d20200008e1d0000d202000031
:1000a800d2020000d2020000d2020000d2020000f8
:1000b800d2020000d2020000d2020000d2020000e8
:1000c800d2020000d2020000d2020000d2020000d8
:1000d800d2020000d2020000d2020000d2020000c8
:1000e800d2020000d202000006100000d202000076
:1000f800d2020000d2020000d2020000d2020000a8
:10010800d2020000d2020000d2020000d202000097
:10011800d2020000d2020000d2020000d202000087
:10012800d2020000561a0000ea1d0000d2020000a8
:10013800d2020000d2020000d2020000d202000067
:10014800d2020000d2020000d2020000d202000057
:10015800d2020000d2020000d2020000d202000047
:10016800d2020000d202000002210000d2020000e8
:10017800d2020000d2020000d2020000d202000027
:10018800d2020000d2020000d2020000d202000017
:10019800d2020000d2020000d2020000d202000007
:1001a800d2020000d2020000d2020000d2020000f7
:1001b800d2020000d2020000d2020000d2020000e7
:1001c800d2020000d2020000d2020000d2020000d7
:1001d800d2020000d2020000d2020000d2020000c7
:1001e800d2020000d2020000d2020000d2020000b7
:0801f800d2020000d202000057
:020000040000fa
:10020800d2020000d2020000d2020000d202000096
:10021800d2020000d2020000d2020000d202000086
:10022800d2020000d2020000d20200000026000024
:10023800d2020000d2020000d2020000d202000066
:10024800d2020000d2020000d2020000fa19000017
:10025800a0190000d2020000d2020000d202000061
:10026800d2020000d2020000d2020000d202000036
:10027800d2020000d2020000d2020000d202000026
:10028800d2020000d2020000d2020000d202000016
:10029800d2020000d20200008e1d0000d20200002f
:1002a800d2020000d2020000d2020000d2020000f6
:1002b800d2020000d2020000d2020000d2020000e6
:1002c800d2020000d2020000d2020000d2020000d6
:1002d800d2020000d2020000d2020000d2020000c6
:1002e800d2020000d202000006100000d202000074
:1002f800d2020000d2020000d2020000d2020000a6
:10030800d2020000d2020000d2020000d202000095
:10031800d2020000d2020000d2020000d202000085
:10032800d2020000561a0000ea1d0000d2020000a6
:10033800d2020000d2020000d2020000d202000065
:10034800d2020000d2020000d2020000d202000055
:10035800d2020000d2020000d2020000d202000045
:10036800d2020000d202000002210000d2020000e6
:10037800d2020000d2020000d2020000d202000025
:10038800d2020000d2020000d2020000d202000015
:10039800d2020000d2020000d2020000d202000005
:1003a800d2020000d2020000d2020000d2020000f5
:1003b800d2020000d2020000d2020000d2020000e5
:1003c800d2020000d2020000d2020000d2020000d5
:1003d800d2020000d2020000d2020000d2020000c5
:1003e800d2020000d2020000d2020000d2020000b5
:0803f800d2020000d202000055
:020000040000fa
:100400008fca20000e7f22000e018800000000002d
:10041000000020000000e000020032000001200087
:10042000200288000c0007008088220001002000c4
:100430000f000700000020000000e0000200320072
:1004400000000200000000009029020000000000ef
:100450000040da000000fe00202a20000000e0003a
:1004600002003200002020009001880000000600f9
:10047000a1028800800078000000eb001a0037001d
:10048000e280400054a0b4009101ba00e280400034
:1004900054a0b4009102ba00e280400054a0b4001d
:1004a0000002eb00472bde00f507b200a601880032
:1004b000602ce10008003a000049eb000201e8006e
:1004c000020039003420ec0002f0a0008301e900b2
:1004d000f9ff3e00040037006128e100010032000e
:1004e0000082eb00040007001101ba000200e000e6
:1004f000e3ff3a000000060004d0a300e20f490029
:100500001c003900810278003549ba000201e80078
:10051000020039003420ec0002f0a0008301e90061
:100520000f0032002549ba000201e800020039003c
:100530003420ec0002f0a0008301e9000800320042
:100540000400e0000600320015c9ba000201e8000c
:10055000020039003420ec0002f0a0008301e90021
:100560008180e80054a0b4000300e000e2ff3a00fc
:10057000000006009102ba00055978008301e900e5
:10058000f7ff3200c82ade00055978008301e90030
:10059000f3ff32000400e000f1ff320011d9ba008d
:1005a000eeff37000040da000000fe000a00fa000b
:1005b000e20f500022003e0074648000e10f520000
:1005c00006003200e7512000a6512000845120008f
:1005d00065512000e08f530004003a00875020004e
:1005e0004650200024502000055020000000280024
:1005f0001500600003003a00800b78000700280017
:10060000958a7300054020009482620001003a0040
:1006100014a0a0008202780006003700940378003e
:100620000710b200fdff3200b103fb00070b78009a
:100630008502e900e08f5200f8ff3a000800370019
:1006400034002000c0bf9f00e2bf9f00b4bf9f00e6
:10065000d1bf9f006a805700db0407006fb9970085
:10066000020078000080fa0000000600889fbe00ab
:100670008a9fbe003004be002005be000404440072
:1006800085844c0006054d0087854d000898be0006
:100690000a90be000440e10005c8e10006d0e10078
:1006a00007d8e10002003100680040001008e800af
:1006b0004f05be004f04be00000006001000fa0007
:1006c000889fbe008a9fbe00110020000605be0064
:1006d0000404be003002be002003be00c4b79f0069
:1006e000d5b79f00e6b79f00f7b79f0008025200fa
:1006f00089825a000a035b008b835b0084bf9f00e2
:1007000095bf9f00a6bf9f00b7bf9f000498be0083
:100710000698be004fb29700dfb297006fb3970004
:10072000ffb397000820e10009a8e1000ab0e1004a
:100730000bb8e100010039008000eb004f05be005e
:10074000108810004f04be000080fa000000060070
:100750001400fa00889fbe008a9fbe008c9fbe00d6
:100760000006eb003e000700ccb79f00bcb79f001f
:10077000acb79f009cb79f008cb79f000605be00da
:100780000404be000d0420004fb39700bfb29700d1
:10079000860343002fb29700e00f530004003d0092
:1007a0003d0007000f004000b0ff070003003700c6
:1007b000390007000f004000c0ff0700cfb29700cc
:1007c00095bf9f00e08f5200090035002b00070005
:1007d00014002000050020006033b8000000720003
:1007e0008180720002017300838173001c00070086
:1007f0000c06e8008d0f5600e3ff3a001fba970081
:10080000e00f520005003d000802be000a03be00d2
:1008100000fe2f000f00400094ff07004faa970032
:10082000e00f520008003a000fb497009fb4970001
:100830002fb59700bfb59700d8b79f00e9b79f00c5
:10084000fab79f008bbf9f000c0007004f06be0049
:100850004f05be004f04be000080fa0000000600f5
:10086000010007000000060090b79f00a1b79f009d
:10087000b2b79f00c3b79f00000006000100070049
:10088000000006001fb09700afb097003fb197007f
:10089000cfb19700000006004f2bde00f9ff0700e4
:1008a00086837300858242004f23de00a7b79f0036
:1008b000868272000402420095b79f00ffaa97004b
:1008c0004f2bde00858242000602720084b79f0033
:1008d0006faa97004f23de00040242008682720056
:1008e000f5af9f004f18de0000027200e5ff070021
:1008f000e4af9f00000040008180480002014900f1
:10090000838149000802be000a03be00d6ff07002b
:1009100000fe2f0000000600881f7800180020004d
:10092000881f78008aff07008f87e9004f0478004e
:1009300000000600801feb0085ff07008f87e9009d
:1009400000000600889fbe008a9fbe00e00f500096
:10095000e08f5800e00f5900e08f59000c003d0077
:100960006044b8006055b8000000540081805c000d
:1009700002015d0083815d00180020001500070062
:1009800008003d00180007000004eb0005003700d8
:100990000004eb000f00070002003d0012000700fa
:1009a00018002000dcff0700e00f540006003200b2
:1009b0006022b8006033b8000000520081805a0005
:1009c00002015b0083815b004f05be004f04be0047
:1009d00000000600e00f5200e08f5a00e00f5b00bd
:1009e000e08f5b00000006006044b8006055b8006e
:1009f0000402540085825c0006035d0087835d006d
:100a000000000600889fbe008a9fbe008c1f7800f1
:100a1000e00f5000e08f5800e00f5900e08f5900c0
:100a20000d003d006044b8006055b8001c00200077
:100a30000000540081805c0002015d0083815d0044
:100a40000820e10009a8e1000ab0e1000bb8e100cc
:100a50000d003d00080037000006eb00e00f5200db
:100a6000e08f5a00e00f5b00e08f5b0006003d0066
:100a70006044b8006055b8000402540085825c00f0
:100a800006035d0087835d00aaff0700e00f5600a4
:100a9000060032006022b8006033b8000000520047
:100aa00081805a0002015b0083815b004f06780061
:100ab0004f05be004f04be0000000600889fbe0028
:100ac0008a9fbe008c1f78000006eb00e00f5000ec
:100ad000e08f5800e00f5900e08f590007003d00fb
:100ae0006044b8006055b8001c00200000005400ad
:100af00081805c0002015d0083815d00e00f520097
:100b0000e08f5a00e00f5b00e08f5b0007003d00c4
:100b10006044b8006055b8000c00a2000402540004
:100b200085825c0006035d0087835d000c00070082
:100b3000e00f5600060032006022b8006033b800b3
:100b40000000520081805a0002015b0083815b003b
:100b50004f0678004f05be004f04be00000006009f
:100b6000889fbe008a9fbe008c9fbe000404b80010
:100b70000506b8008904460060854e000606b800e8
:100b80000a054600e0854e000706b8008b054600c2
:100b9000040eb800890446000a854e00e0854d0029
:100ba000050eb8000a0546008b854e00060eb800fb
:100bb0008b0546000416b8000a0546008b854e00da
:100bc0000516b8008b054600041eb8008b054600cc
:100bd0000800be000a01be004f06be004f05be0061
:100be0004f04be000000060000027800020037003b
:100bf000315a78000201e900e00f5100fcff3a0091
:100c0000000006000002780002003700015a780058
:100c10000201e900e00f5100fcff3a00000006006d
:100c2000889fbe000004be00050037000000fb00e6
:100c30008900780037000700e10f4000040032000f
:100c400038407800e04f5000f8ff3a000000eb0019
:100c50004f04be0000000600e1c52000881f780098
:100c6000efff0700e1c5200000047800a00020008d
:100c700028000700080078004f04780000000600f4
:100c800000027800b1427800055a7800e0cf5200a7
:100c9000fcff3a0000000600000278008042eb00f2
:100ca000b4cf1200fdff3a000080ea0000004200cd
:100cb000000006000b00370030427800e04f520081
:100cc000030032000201e900b14f5200050032007a
:100cd0000480fb00954278008582fb0005005000ef
:100ce0000000060081027800e00f5100f2ff3a0098
:100cf0000200780000000600e0c520000000fa00b5
:100d000068815700cfb89700460007000080fa00be
:100d100000000600889fbe00010478008084eb007c
:100d200038029000e20262003b00320004037800c7
:100d3000980290000620b20002003a00e08f5200b4
:100d400035003a000490a000800478003404980034
:100d5000f90fb200e08f520002003a00a8029000a2
:100d6000050c7800ea8f540005003a000408b20030
:100d700003003a0088007800d0002000e5ff07005b
:100d800018029000d8029000850f52000b0032002c
:100d90000402e80015c0b30014049800180278009b
:100da000094a7800040ce80024c92000054a7800ac
:100db000ea8f540018003a00050037000940780017
:100dc00088007800be020700800478001200370017
:100dd000380290000410b2000f0032001801900099
:100de000a800900048009000f0fd07001802900055
:100df000840f500004003200380290000403b30056
:100e0000340498008084eb000002eb001404980086
:100e100028029000040c7800090078004f04be00fe
:100e200000000600ef03b000889fbe008a9fbe004e
:100e30008c9fbe00000678008e1f78008006eb00b5
:100e4000e1af9f0082b79f0091023700efa89700a3
:100e500054c2b3008100e800e1af9f00844f50000e
:100e600006003a00010278008042eb0002c3b300a2
:100e700001c2b300b0c2b3000e0037003c029000c4
:100e80000404b200040032001c027800004a78001a
:100e9000040ee800050037000000fb008c0078001d
:100ea0009cff0700e10f4000790232008d06e80048
:100eb0007702370004037800d3c2b300b44378004c
:100ec00083cf53000900320005003c0081cf53005e
:100ed0000800320080cf53000c003a0007003700b2
:100ee00082cf530009003a00060037000534a00005
:100ef000f0ff37000504a000eeff37000514a00046
:100f0000ecff37000524a000eaff37006282620090
:100f1000010032000504a100688262000100320075
:100f20000524a1000702fb000403b100e90f5200f1
:100f30000c003e00860378000002eb006a20b90036
:100f40003702fb000403b1000703780000024200ef
:100f50001700fb000003b100e90f5000f7ff360057
:100f6000080037000002eb00a0c2b30080cf53009e
:100f700004003a008fb397000603e80047027800a8
:100f800087b79f000007eb00e7c2b30096cf1300be
:100f900009003a00e4c35300d6cf13000200320028
:100fa000860378000a0037000fb097000603e800b8
:100fb0004007780080b79f008603780031c6b300f1
:100fc000c0c6b300080037006a71b90002074000cc
:100fd000070378003700fb000003b100e90f500061
:100fe000f9ff3600f4ff37000701780033c7b3007c
:100ff0003243780082037800834f53001a00320096
:1010000008003c00814f53007b003200804f5300aa
:101010000c003200e2af9f00e04f5300210232008b
:1010200097003700e2af9f0057c7b300874f5300c8
:1010300098003200e3c34300874f530090003a000a
:10104000060037007081620006c1b3000100320063
:101050000043eb0086c27200e3ff3700e6779f0093
:101060000574a0008e0037008fb3970036c7b30019
:10107000e2af9f00e6779f004703780087b79f00a5
:1010800006047800e00f530001003a0068c7200012
:10109000880378000003eb00010037000603e80036
:1010a00067407b00e04f5000fcff3a008604780068
:1010b000e00f570003003200890f57000100310094
:1010c0008e0478000007eb00890f52000100360003
:1010d00009075200e882620004c2b30095b79f007e
:1010e0001100320028003700bc0290000504b20055
:1010f000040032009c027800844a7800050ee80063
:101100000700370084bf9f008c0078000002200099
:1011100000ff07000fba9700e10f40000100320006
:101120008d06e8000e07e900e00f5700eeff3a00d9
:101130000087eb00140037003c0290000404b2006a
:1011400009003200080278001c037800b4427800dd
:10115000054b780004047800060ee800e0cf52004a
:1011600008003a0008003700080278008c00780078
:101170003400fb0004047800e6fe0700e10f4000a5
:10118000010032008d06e800090278008404e900bd
:10119000e00f5200e8ff3a001fb0970004c2b3000e
:1011a000e00f500011003a00b9013700bc02900076
:1011b0000504b200040032009c027800844a7800e2
:1011c000050ee8000700370084bf9f008c00780000
:1011d00000022000cffe07000fba9700e10f400089
:1011e000010032008d06e8000e07e900e00f57000d
:1011f000eeff3a00a60137008fb09700e2af9f00e4
:10120000f08362004103780081b79f0006007800f8
:10121000cf80de00010178008201780090b79f0046
:10122000a1b79f00b2b79f00c3b79f004800de0080
:10123000480bdd0000007300e0779f00e08f530053
:1012400009003200e04f500007003200e14f40003b
:1012500005003200afe39700f0779f00877f9f0083
:1012600029002000030037002fe09700190020001c
:10127000f0779f0078fb2f000f0444008cff3700ad
:10128000e6779f0068fb2f000f0444001900200040
:1012900087ff3700e6779f0006ccb30086c2720056
:1012a0008582fb00f080620095b79f00f19f9f0050
:1012b0000e0032008fb297000003eb004501be0024
:1012c0008003eb00d2a79f00e3a79f00f6a79f0033
:1012d00087af9f0085b79f005fa49700efa497009a
:1012e0007fa597008fad9700060037000fb09700dd
:1012f0004004780080b79f00090020000a00200009
:101300000b002000e00f570007003a001e002000ed
:10131000e00f5400e08f5c00e00f5d00e08f5d00a7
:10132000010032000007eb009fb097000508200085
:10133000010cb20091af9f00858f50001000320069
:10134000050c2000858f500021003a00a6bb20002c
:1013500015c0b3003600be003601be000040e100fb
:1013600001c8e10002d0e10003d8e1001700390014
:101370008542e800f4cf5200f6ff3a001300370030
:1013800015c0b30000012000010020006011b8006a
:101390000040e10001c8e10002d0e10003d8e10013
:1013a0000a003900460020000000d0008180d200f1
:1013b0000281d2008381d2000603e900faff3a00dd
:1013c0008542e800f0cf5200f1ff3a00e5779f0038
:1013d000ef7397008702fb008e8f520002003d00e2
:1013e000ee779f0003003700850f570001003d0096
:1013f00005077800e00f5200040032009fb097000c
:10140000e3826000010032000402e9006f7197007e
:101410008001eb008202fb00f3af9f00850f5200ba
:101420000200340085025200f5af9f009fb2970082
:10143000648262004600320005037800e202630025
:1014400061026300e08f520011003200bc02900084
:101450000504b200080032009c027800b6c2b30056
:10146000e00f52000100320006c3e800864a78000f
:10147000050ee80015003700b0022000e00f520012
:10148000010032000080e8008c0078000c0037007a
:10149000e00f52000e0032003c0290000404b20043
:1014a000050032001c02780005c2b300054a78002e
:1014b000040ee800050037008c00780000022000d0
:1014c00014fe0700e10f4000010032008d06e80025
:1014d000ffab9700e08f530065003200a8af9f007c
:1014e000b9af9f00caaf9f00dbaf9f0004c3b3003a
:1014f00087047800bc0290000504b20004003200aa
:101500009c027800844a7800050ee8000700370046
:1015100084bf9f008c00780000032000fdfd0700c1
:101520000fba9700e10f4000010032008d06e8007d
:101530008904e900efff3a00f9af9f002fac970054
:10154000bfac97004fad9700dfad97004800370064
:10155000ffa89700e08f50001f0032001fb19700d6
:10156000680261001c003a00a8af9f00b9af9f005d
:10157000caaf9f00dbaf9f00ffac970004c2b3006f
:10158000bc0290000504b200040032009c02780006
:10159000844a7800050ee8000700370084bf9f00ea
:1015a0008c00780000022000dafd07000fba9700d7
:1015b000e10f4000010032008d06e8008904e900d7
:1015c000efff3a00f9af9f002fac9700bfac970038
:1015d0004fad9700dfad97009fb09700e2826000ab
:1015e00061826000e08f520011003200bc02900066
:1015f0000504b200080032009c027800b6c2b300b5
:10160000e00f52000100320006c3e800864a78006d
:10161000050ee80015003700b0022000e00f520070
:10162000010032000080e8008c0078000c003700d8
:10163000e00f52000e0032003c0290000404b200a1
:10164000050032001c02780005c2b300054a78008c
:10165000040ee800050037008c007800000220002e
:10166000acfd0700e10f4000010032008d06e800ec
:101670008e02e90024bb20004229dd00c32add00e0
:1016800082a79f00048242005d0037000e07e90038
:101690009fa9970004082000848f51003400320075
:1016a000040c2000848f51003f003a00ff9a9700fd
:1016b000e08f5200220032002fa89700d89f9f0091
:1016c000e99f9f003002be002003be000800be005c
:1016d0000401be0084bf9f00d5b79f00e6b79f00fe
:1016e000f7b79f00ba0007000fba9700e0779f0096
:1016f000dfb297000000fb00cf80de000401be00d7
:10170000c30007005f999700ef9997000002eb0074
:101710000001510081815900c4a79f0092a79f003a
:10172000a3a79f008001eb00b3a79f001fa4970011
:10173000afa497003fa59700cfa5970008003700fa
:10174000afaa970015027800110009000484d800a0
:10175000a4002000110009000480d800e1779f0058
:101760006f7397000643b000e6779f000e003700c6
:101770000802be000a03be000fa09700d1c72000d8
:101780000000e900050033008703d1000683d30081
:101790008582d3000482d300f9ff37006f02620014
:1017a00061427a00e4779f003c0290000404b2009a
:1017b000070032009c0278006f729700844a78001c
:1017c000050ee800e04f520007003a00070037001e
:1017d0006f7197008c0078000200fb004dfd070040
:1017e000e10f4000010032008d06e8008fa1970054
:1017f000e481510083a79f002faa9700680252003e
:10180000a4af9f00e00f5700a0ff3a009fb29700df
:10181000688262001e0032007fab9700e00f530029
:101820001b0034000802be000a03be00ffac970094
:101830000ec2b3003c0090000004b200040032006d
:101840001c0078000e487800000ee8000d003700fc
:1018500084bf9f00d5b79f00e6b79f00f7b79f00f2
:101860008c007800000220002afd07000fba9700c4
:10187000dfb297006fb39700ffb39700e10f40000e
:10188000010032008d06e8008904e900e9ff3a0012
:10189000efab970017407800e0779f00e04f5000d3
:1018a0006afd3a004f0778000d0078004f06be0031
:1018b0004f05be004f04be00ef03b100000006005c
:1018c0000200fa00889fbe0001047800a0ff9f007c
:1018d00038029000840278000504b2000200320051
:1018e0000000fb0035003700e202620005003a000c
:1018f0000403b30015049800340498000080eb0042
:101900002e003700d8049000e08f540006003a0003
:1019100012002000e68057004800900023fb0700db
:101920001904980023003700a8029000e08f5200ad
:1019300008003a0065c920000430a0002504980082
:10194000050c780034049800250020005504980008
:101950001504980018019000a8009000480090001d
:1019600012fb0700280290008082eb00150498000b
:10197000affa9700054a7800040ce8002ffa9700a8
:10198000ea4f52000b003a00380290000410b200f7
:101990000800320018019000a80090004800900054
:1019a00002fb07000002eb00a8029000140498005c
:1019b000050c78002ffa97000400fb004f04be00ce
:1019c0000080fa000000060000c0da0000000600f7
:1019d0006022b800060220000000d0008180d20002
:1019e0000482d2008582d2000000a00002025200d0
:1019f00083825a00030031000202420083824a00bf
:101a00000000a1000603e900f3ff3a000000060011
:101a1000020ab900001bb9000200b80081004200b0
:081a20008100430000000600f4
:020000040000fa
:101a28000d0a00003d3d00003d3d00003d3d000029
:101a38003d3d00003d3d00003d3d00003d3d0000b6
:101a48003d3d00003d3d00003d3d00003d3d0000a6
:101a58003d3d00003d3d00003d3d00003d3d000096
:101a68003d3d00003d3d00003d3d00003d3d000086
:101a78003d3d00003d3d00003d3d00003d3d000076
:101a88003d3d00003d3d00003d3d00003d3d000066
:101a98003d3d00003d3d0000000d00000a20000013
:101aa800202000002020000020200000202000002e
:101ab800202000002020000020200000202000001e
:101ac80020200000202000004a4a00004820000092
:101ad800626f00006172000064200000474200004d
:101ae80032300000320000000d0a00002020000003
:101af80020200000202000002020000020200000de
:101b080020200000202000002020000020200000cd
:101b18005049000043320000345f0000436f00006a
:101b28007665000072610000676500005f74000060
:101b38006573000074650000720000000d0a000063
:101b4800202000002020000020200000202000008d
:101b5800202000002020000020200000202000007d
:101b6800202000002020000020200000202000006d
:101b780020200000436f00006d20000031000000ad
:101b88000d0a00003d3d00003d3d00003d3d0000c8
:101b98003d3d00003d3d00003d3d00003d3d000055
:101ba8003d3d00003d3d00003d3d00003d3d000045
:101bb8003d3d00003d3d00003d3d00003d3d000035
:101bc8003d3d00003d3d00003d3d00003d3d000025
:101bd8003d3d00003d3d00003d3d00003d3d000015
:101be8003d3d00003d3d00003d3d00003d3d000005
:101bf8003d3d00003d0d0000000d00000a200000e2
:101c080020200000202000002020000020200000cc
:101c180020200000202000002020000020200000bc
:101c280020200000202000002020000020200000ac
:101c3800204300006f6d00002032000000640000a7
:101c48006f720000737300000d0a00000047000067
:101c5800455400002044000053500000205200006a
:101c680053530000492000003120000031200000bb
:101c7800534800004f520000542000000d0a000095
:101c88000052000053530000490000005253000066
:101c980053490000313d0000000d00000020000005
:101ca80020200000202000002000000052530000e7
:101cb800533a00000052000053530000493200001c
:101cc8003d000000476500007452000053530000b7
:101cd8004920000052650000717300007420000064
:101ce80052650000637600002764000000000000d1
:101cf800436f0000766500007261000067650000b0
:101d0800205400006573000074650000722d000007
:101d1800555300004552000000200000202000001c
:101d280020200000202000002020000020200000ab
:101d3800202000002020000020200000202000009b
:101d4800200000005253000053490000313a0000bf
:101d5800202000002020000020200000202000007b
:101d68002020000020200000202000000052000059
:101d780053530000493200003a20000020200000a0
:101d8800202000002020000020200000202000004b
:101d98002020000020000000436f0000766500004e
:101da8007261000067650000205400006573000040
:101db80074650000722d00005154000052000000ac
:101dc800202000002020000020200000202000000b
:101dd80020200000202000002020000020200000fb
:101de800202000002000000052530000534900004a
:101df800313a0000202000002020000020200000b0
:101e080020200000202000002020000020000000ea
:101e18005253000053490000323a000020200000cd
:101e280020200000202000002020000020200000aa
:101e380020200000200000002020000020200000ba
:101e48002056000065720000204800004854000039
:101e58003120000020200000202000002020000069
:101e6800002000004d650000726c0000696e0000e3
:101e780073200000436f00006d700000757400004f
:101e8800696e00006720000020000000202000008c
:101e980020200000202000002048000048540000b6
:101ea80052430000202000002020000020200000d5
:101eb8002020000000000000202000004d650000e8
:101ec800726c0000696e0000732d0000436f000003
:101ed8006d70000075740000696e000067200000d6
:101ee800200000002020000020200000202000000a
:101ef8002048000048540000524300002020000001
:101f080020200000202000002020000020000000e9
:101f18005253000053490000205200006571000030
:101f28007565000073740000202000002020000068
:101f380020200000202000000020000020200000b9
:101f48002020000020200000202000002020000089
:101f58002020000020200000202000002020000079
:041f68002000000055
:020000040000fa
:101f6c000000fa0004b82000a5b720001502980064
:101f7c0004b82000a5b72000050a780005b8200099
:101f8c00250290000410a000a402980005b82000bf
:101f9c00250290000400a100a402980004b82000bf
:101fac008042eb00654298000405200074178800fd
:101fbc0004202800841788000002eb00a417880076
:101fcc008a40a9009a40a8000080fa000000060090
:101fdc000000fa00e2ff07000080fa000000060093
:101fec000200fa0004b82000e4429000054f78008b
:101ffc001e427800044078000080fa0000000600c1
:10200c003600f800809fbe00829fbe00849fbe00f9
:10201c00869fbe000000fa008a40a900a517800028
:10202c000408200004826200e00f52000a00320013
:10203c00f4e2a9000002eb00445c8800745c8000b0
:10204c00240290008002eb00050a78000002eb00ed
:10205c00745c880022013700445c8000050020007d
:10206c00b600200007002000860f5200878f5a0010
:10207c0011013e00046001000b0037003b003700eb
:10208c0079003700a600370008013700d900370067
:10209c00ea00370005013700ec0037000601370075
:1020ac00360037005200370004b82000240290009c
:1020bc0062026200e00f520008013a0004b82000ee
:1020cc0014029000745c880004b820001402900084
:1020dc001442780004437800a5b82000864a7800a2
:1020ec0004b820001402900014029000645c880074
:1020fc0004b8200014029000e602420004b820004c
:10210c001502980004b820009402900004b8200036
:10211c00848f520003003a0004b82000a5b72000b9
:10212c001502980005b82000250290000400a100bb
:10213c00a402980004b820009402900004b8200077
:10214c0014027800848f520004003a0005b8200075
:10215c00250290000410a000a4029800f002a80030
:10216c0024002000445c8800dd003700f022a80029
:10217c0024002000445c8800d9003700a51780009b
:10218c000400280004826200e00f520008003200b4
:10219c0004b82000644290008442e80004b8200097
:1021ac006542980040002000e9000700cc00370091
:1021bc00e45c80008402d100f40f200004826200f1
:1021cc0064178800e45c80006102620004427800bd
:1021dc00e04f520003003200b4002000445c880041
:1021ec00bf00370034002000445c8800bc0037007e
:1021fc00a51780000400280004826200e00f520042
:10220c000800320004b82000644290008442e800c8
:10221c0004b820006542980040002000cc00070064
:10222c00af003700f022a800e45c80004822de00fa
:10223c00e6026200040f200005027200e45c8800d4
:10224c00e45c80000400a000e45c880014c0b300cf
:10225c0084427800e7b92000854b780024002000e8
:10226c00445c88009e003700e4b9200014427800da
:10227c00e14f52000c003200645c800014027800c4
:10228c00e45c8800645c800024029000045d88009b
:10229c00645c8000244290008443780026ba2000bd
:1022ac00074b7800040037000042eb000443780031
:1022bc00e5b92000864a7800e55c8000f40f200028
:1022cc00848f520009003600e45c80004822de0056
:1022dc00e6026200040f20000502720064178800f9
:1022ec00a4002000445c88007d003700e45c800082
:1022fc0064178800e45c800061026200044278008c
:10230c00e04f52000300320054002000445c88006f
:10231c007300370034002000445c880070003700e4
:10232c00a51780000400280004826200e00f520010
:10233c000900320004b82000644290008442e80096
:10234c0004b8200065429800f5e2a9005000200076
:10235c007f0007006200370024ba20001442780086
:10236c008482fb008502e900cf2ade0085427800da
:10237c000442e9000443780027ba2000864b780019
:10238c00e0cf520014003200645c80006602420010
:10239c00645c8800a4b82000144278000442e90070
:1023ac0084427800a7b82000854b7800a4b82000a0
:1023bc0014427800e04f520003003a002000200045
:1023cc006300070046003700f022a800240020001c
:1023dc00445c880042003700045d80009442780021
:1023ec008582fb00651788000402e800045d880004
:1023fc003b003700a517800004002800048262000f
:10240c00e00f52000900320004b820006442900032
:10241c008442e80004b82000654298004000200087
:10242c004b000700f5e2a9002d003700f062a80070
:10243c0084002000445c88002900370084002000c0
:10244c00445c8800f062a80025003700045d800021
:10245c005517800085427800054a78000402e80090
:10246c00045d880024ba2000144278000442e9007c
:10247c008443780026ba2000074b780024ba200049
:10248c0014427800e04f520004003200f0a2a90080
:10249c0064002000445c880002003700f0a2a80011
:1024ac0016000700f082a8000d0037002000200065
:1024bc00270007000a00370004b82000644290008f
:1024cc008442e80004b820006542980060002000b7
:1024dc001f00070000000000010037000000000092
:1024ec000080fa004f03be004f02be004f01be0039
:1024fc004f00be003600f900004006000000fa0054
:10250c00645c800066024200645c8800a4b8200011
:10251c00144278000442e90004437800a5b8200076
:10252c00864a7800a4b8200014427800e04f52008c
:10253c0003003a0044002000445c8800020037008d
:10254c0014002000445c88000080fa0000000600a3
:10255c000200fa00000f7800f042a800745c8000c2
:10256c0024029000e00f520003003200745c8000e3
:10257c00240290001e0a78000002eb00445c8800e4
:10258c000080fa00000006000800fa00000f780036
:10259c0021479800220798003307980004b82000c0
:1025ac002402900061026200e00f52000a003a001f
:1025bc00ae0190002e4190009e00780060b9200082
:1025cc00a70007003e01900061b9200010c0b300c5
:1025dc0037000700030037003e0290008002eb003a
:1025ec00050a78000080fa00000006000800fa00d6
:1025fc00000f7800214798002207980033079800b5
:10260c00be0190002e019000ae4090001e0078009c
:10261c00ddff07000080fa00000006000800fa0049
:10262c00000f780021479800220798003307980084
:10263c0004b820002402900061026200e00f5200f6
:10264c000a003a00ae0190002e4190009e007800e6
:10265c0000b920005d0007003e01900001b9200088
:10266c0010c0b30012000700030037003e029000b8
:10267c008002eb00050a78000080fa0000000600da
:10268c000800fa00000f78002147980022079800f4
:10269c0033079800be0190002e019000ae409000d0
:1026ac001e007800ddff07000080fa000000060025
:1026bc000600fa00004f78001107980022079800d6
:1026cc0004b820002402900061026200e00f520066
:1026dc002e003a002e02900015002000050a78000a
:1026ec0004b82000140278009e0290001502980095
:1026fc0004b82000140278001e4a780004b82000a8
:10270c0014027800ae0290002502980004b8200054
:10271c0014027800e602420004b82000050a780092
:10272c0004b820009402780004b82000848f520072
:10273c0003003a0004b82000a5b72000050a780071
:10274c0005b82000250290000410a100a4029800f6
:10275c0004b820009402900004b820001402780001
:10276c00848f520004003a0005b820002502900026
:10277c000400a000a4029800445c8000e00f52000a
:10278c0005003a008a40a800030037002e02900092
:10279c008002eb00050a78000080fa0000000600b9
:1027ac000600fa00004f78001107980022079800e5
:1027bc001e0290002e019000840078001e407800cc
:1027cc00bbff07000080fa00000006000800fa00ba
:1027dc00000f7800110798004247980033079800c3
:1027ec003e02900004024200840278001e0278002f
:1027fc00050a78001e027800140278008402780022
:10280c000500a0001e027800050a78001e02780060
:10281c00ce429000254298001e0278009e02900045
:10282c00250298000080fa00000006000800fa005b
:10283c00000f780011079800424798003307980062
:10284c001e027800be0190004e4190009e00900048
:10285c0004007800ddff07000080fa00000006008d
:10286c000800fa00000f7800110798004247980002
:10287c00330798003e029000040242008402780064
:10288c001e027800050a78001e027800ce429000e5
:10289c00254298001e0278009e02900025029800a6
:1028ac000080fa00000006000800fa00000f780013
:1028bc001107980042479800330798001e027800d1
:1028cc00be0190004e4190009e00900004007800e4
:1028dc00e3ff07000080fa00000006000000fa0089
:1028ec0004b82000240290000402d100614262006e
:1028fc000482fb0004f0a7000402ea000402ea00d0
:10290c004f22de0004427800044078000080fa0078
:10291c00000006000000fa00f0ff070000427800fb
:10292c00044078000080fa00000006000000fa0065
:10293c0004b8200024029000614262000482fb0073
:10294c0004f0a7000402ea000402ea004f22de00b1
:10295c0004427800044078000080fa000000060071
:10296c000000fa00f1ff07000042780004407800f4
:10297c000080fa00000006000200fa00004f780008
:10298c0011479800f002a800000000008417800096
:10299c0061026200e00f5200fcff3a008a40a9007d
:1029ac0000000000a51780000400280004826200cb
:1029bc00e00f5200fbff3a001e02fb006417880078
:1029cc0000000000a51780000400280004826200ab
:1029dc00e00f5200fbff3a001e4290000402fb0085
:1029ec0064178800f042a8000000000084178000e3
:1029fc0064026200e00f5200fcff3a008a40a9001a
:102a0c000080fa00000006000000fa00e002a800b6
:102a1c00000000000417800061026200e00f520009
:102a2c00fcff3a000080fa00000006000000fa00eb
:102a3c00e042a8000000000004178000640262005d
:102a4c00e00f5200fcff3a000080fa000000060084
:102a5c000000fa0000052000010020004a0b0700ce
:102a6c000080fa00000006000200fa00004f780017
:102a7c008620a9001e02fb00e4168800000000005e
:102a8c00251780000400240004826200e00f52002d
:102a9c00fbff3a00e5e2a8000080fa000000060007
:102aac000400fa00004f78001107980004cfb3001f
:102abc001e426200d440b30004407800eaff0700d5
:102acc0004cfb3001e4262009440b300044078006f
:102adc00e5ff07001e02fb004422dd0004427800e3
:102aec00d440b30004407800dfff07001e02fb0057
:102afc004422dd00044278009440b3000440780086
:102b0c00d9ff0700d2ff07001e02900004007800d6
:102b1c00cf80de00010178008201780004402200a1
:102b2c00450f20006033b800e1f707000203be0038
:102b3c000002be000400be000601be0004242400f6
:102b4c00f50020006033b8007bf707000203be00dd
:102b5c000002be000402be000400be000a0b070007
:102b6c000080fa00000006000400fa00004f780014
:102b7c0011079800a4ff070000322000010020007c
:102b8c00010b0700b2ff0700f4ba200014427800d2
:102b9c0004407800b4ff070004cfb3001e4262006b
:102bac00c440b30004407800afff0700a8ff070043
:102bbc009eff0700a6ff070093ff0700f4ba200052
:102bcc001442780004407800a7ff070004cfb3003c
:102bdc001e4262000434a00004407800a2ff0700eb
:102bec009bff070091ff070099ff07000080fa0088
:102bfc00000006000400fa00004f7800110798004e
:102c0c0081ff07000032200001002000de0a0700cf
:102c1c008fff0700f4ba20001442780004407800bb
:102c2c0091ff070004cfb3001e4262000424a000f1
:102c3c00044078008cff070085ff07007bff07002e
:102c4c0083ff070070ff0700f4ba200014427800dd
:102c5c000440780084ff070004cfb3001e426200da
:102c6c000440780080ff070079ff07006fff070022
:102c7c0077ff07001e02900004007800cf80de0072
:102c8c00010178008201780004402200450f2000e9
:102c9c006033b80086f707000203be000002be00d6
:102cac000400be000601be0004242400f500200030
:102cbc006033b80020f707000203be000002be001c
:102ccc000402be000400be00af0a07000080fa0038
:102cdc00000006000400fa00004f7800110798006d
:102cec0049ff07000032200001002000a60a07005f
:102cfc0057ff0700f4ba2000144278000440780013
:102d0c0059ff070004cfb3001e4262000424a00048
:102d1c000440780054ff07004dff070043ff0700f5
:102d2c004bff070038ff0700f4ba2000144278006c
:102d3c00044078004cff070004cfb3001e42620031
:102d4c000440780048ff070041ff070037ff0700e9
:102d5c003fff07002cff07003dff0700f4ba2000df
:102d6c0014427800044078003fff07001e02fb006d
:102d7c004422dd00044278000424a00004407800c2
:102d8c0039ff070032ff070028ff070030ff07005c
:102d9c001dff07002eff0700f4ba20001442780034
:102dac000440780030ff07001e02fb004422dd00c7
:102dbc0004427800044078002bff070024ff070032
:102dcc001aff070022ff07001e0290000400780083
:102ddc00cf80de00010178008201780004402200df
:102dec00450f20006033b80031f707000203be0026
:102dfc000002be000400be000601be000424240034
:102e0c00f50020006033b800cbf607000203be00cb
:102e1c000002be000402be000400be005a0a0700f5
:102e2c000080fa00000006000400fa00004f780051
:102e3c0011079800f4fe070005ff0700f4ba200004
:102e4c00144278000440780007ff070004c7b30061
:102e5c009e426200c4c8b30004c2720004407800f1
:102e6c0001ff070004c7b3009e42620004c8b30010
:102e7c0004c2720004407800fbfe07001e02fb0037
:102e8c004422dd0004427800c440b30004407800c2
:102e9c00f5fe07001e02fb004422dd000442780010
:102eac0004407800f0fe0700e9fe0700dffe070093
:102ebc00e7fe07001e02900004007800cf80de00c1
:102ecc00010178008201780004402200450f2000a7
:102edc006033b800f6f607000203be000002be0025
:102eec000400be000601be0004242400f5002000ee
:102efc006033b80090f607000203be000002be006b
:102f0c000402be000400be001f0a07000080fa0085
:102f1c00000006000000fa00bbfe0700ccfe070014
:102f2c00f4ba20001442780004407800cefe07006a
:102f3c000040eb00ccfe0700c5fe0700bbfe0700ff
:102f4c00c3fe0700b0fe0700c1fe0700f4ba200064
:102f5c001442780004407800c3fe070080c0b30020
:102f6c00c1fe0700bafe0700b0fe0700b8fe07005e
:102f7c000080fa00000006000000fa0081382100f1
:102f8c0000c3b3001bff070000a026008101200036
:102f9c00fd0907008138210000c3b30015ff0700ad
:102fac006109200000c3b30012ff070021032000b9
:102fbc0000c3b3000fff07002103200000c2b300c1
:102fcc000cff07002103200000c2b30009ff07001b
:102fdc002103200000c8b30006ff070021032000d6
:102fec000040eb0003ff07002103200000ccb300de
:102ffc0000ff0700210320000040eb00fdfe07004e
:10300c002103200000c1b300fafe070000d0270006
:10301c0001002000dc090700210320000040eb0028
:10302c00f4fe07002103200000c6b300f1fe0700e8
:10303c00b8ff0700210320000040eb00cafe070088
:10304c002103200000c2b300c7fe07000080fa0075
:10305c00000006000400fa00100798006afe070042
:10306c007bfe07001f0037001e00900007f70700cb
:10307c0000027800040f7800e0c7b3007afe070066
:10308c00080037001e029000144278009e02900047
:10309c008502e80015079800210020000440780004
:1030ac007ffe07001e02780004f0a7000402ea006d
:1030bc000402ea004f22de00044278001e0fe900f1
:1030cc00e04f5200efff3a001e02900014427800cd
:1030dc00e04f5200030032000032200001002000bb
:1030ec00a90907001e02900014427800e04f52001c
:1030fc00ddff3a004dfe070055fe07000080fa0088
:10310c00000006000000fa008170200010c0b3001f
:10311c00b8fe07008170200020c0b300b5fe070088
:10312c0000f62800cbff07002103200040c1b300ac
:10313c003dff070060f72800c6ff070021032000b1
:10314c00d0c4b30038ff07002ffe070040fe070075
:10315c00e0c4b30044fe07002103200080cfb3007d
:10316c004ffe070031fe070039fe07002103200047
:10317c00f0c4b3002cff070023fe070034fe070049
:10318c00e0c4b30038fe07002103200000c0eb00b0
:10319c0043fe070025fe07002dfe0700210320003b
:1031ac0020c5b30020ff070017fe070028fe07000c
:1031bc00e0c4b3002cfe07002103200020c3b300a1
:1031cc0037fe070019fe070021fe0700210320002f
:1031dc0010c6b30014ff07000bfe07001cfe07000f
:1031ec00e0c4b30020fe07002103200080cfb30011
:1031fc002bfe07000dfe070015fe07002103200023
:10320c0030c6b30008ff0700fffd070010fe0700e3
:10321c00e0c4b30014fe07002103200080cfb300ec
:10322c001ffe070001fe070009fe07002103200016
:10323c0050c6b300fcfe0700f3fd070004fe0700b8
:10324c00e0c4b30008fe07002103200020c3b30034
:10325c0013fe0700f5fd0700fdfd0700eafd070062
:10326c00fbfd0700e0c4b300fffd070021032000b5
:10327c0000c0eb000afe0700ecfd0700f4fd0700a0
:10328c000080fa00000006000000fa00848028008c
:10329c00042888000002eb00142888000002eb00d0
:1032ac00242888000002eb0034288800041a20002f
:1032bc00442888000002eb00542888000002eb0030
:1032cc00642888000002eb00742888000002eb00e0
:1032dc00842888000002eb00942888000002eb0090
:1032ec00a42888009560a8000345a800a4b6200077
:1032fc00345b8800a4b62000245b880024b720002f
:10330c00145b880024b72000045b8800682ba8009d
:10331c00692ba800690ba900680ba9000080fa00b2
:10332c00000006000000fa00d7ff07000080fa003a
:10333c0000000600849fbe000200fa00455b80007e
:10334c000420200004826200e00f520002003200d0
:10335c009580a900210037008580a9000002eb00b0
:10336c00040f7800150037001e0fe800345b800056
:10337c00144278000482fb0024288800345b80000f
:10338c000402e800345b8800355b800024b7200021
:10339c00848f520002003a00a4b62000345b8800ef
:1033ac00690ba900355b8000245b8000848f520080
:1033bc0002003a00692ba800080037001e027800b2
:1033cc00e00f520005003c0015288000042020006e
:1033dc0004826200e00f5200e3ff32000080fa002a
:1033ec004f02be00004006003600f800809fbe0071
:1033fc00829fbe00849fbe00869fbe000000fa0024
:10340c001c0037008560a900e65a80003428800033
:10341c0084427800c4a5200004024300054a7800c9
:10342c00e55a8000c4a520000482420014427800b2
:10343c00ed4f52000c003a00c1a52000c0ad200099
:10344c000cf60700020820008000eb00c0a520004d
:10345c00e9f5070014002000f45a88000002eb0084
:10346c00e45a880007003700e45a80000402e800a0
:10347c00e45a88001428800061026200e00f5200b8
:10348c00e0ff3a000080fa004f03be004f02be007e
:10349c004f01be004f00be003600f9000040060090
:1034ac00841f78000000fa00142880006202620079
:1034bc00e00f5200010032000225a9008c20a90067
:1034cc000080fa004f027800004006000200fa006b
:1034dc000042eb00044f7800145b8000144f78001e
:1034ec00145b80000402e800145b8800155b80000c
:1034fc00a4b72000848f520002003a0024b72000a9
:10350c00145b8800155b8000045b8000848f520084
:10351c0001003a00682ba800680ba9001e42780035
:10352c00044078000080fa00000006000000fa0059
:10353c00e6ff070000427800044078000080fa00a3
:10354c00000006000600fa00881f7800100798009b
:10355c00210798000002eb00040f78000a003700e6
:10356c00445b800062026200e00f52000b003a00e4
:10357c001e0290001e044200d4ff07000042780097
:10358c00044c78001e0fe8002e0290009e0278007a
:10359c00848f5200f2ff3900010037000000000058
:1035ac001e027800040078004f0478000080fa00b6
:1035bc00000006000400fa00000f780011079800c4
:1035cc009e0090001e007800deff070000027800cd
:1035dc00040078000080fa00000006000200fa00e7
:1035ec00004f7800245b80001e4a7800245b80002a
:1035fc000402e800245b8800255b800024b72000cf
:10360c00848f520002003a00a4b62000245b88008c
:10361c00692ba900355b8000245b8000848f5200ed
:10362c0001003a00690ba800a504800004002100e9
:10363c0004826200e00f520001003a009580a8005d
:10364c000080fa00000006000200fa00004f78002b
:10365c001e407800e1ff07000080fa000000060021
:10366c000600fa0010079800210798000002eb00f2
:10367c00040f78000b003700455b8000041020001d
:10368c0004826200e00f52000b003a001e02900010
:10369c001e024200144278001e0fe800044078001d
:1036ac00ceff07002e0290009e027800848f5200fd
:1036bc00f1ff390001003700000000001e02780005
:1036cc00040078000080fa00000006000400fa00f4
:1036dc00000f7800110798009e0090001e007800e3
:1036ec00dfff070000027800040078000080fa0079
:1036fc00000006000200fa000002eb00040f780044
:10370c00455b80000410200004826200e00f520030
:10371c00010032001e30a000455b80000420200018
:10372c0004826200e00f5200010032001e40a00033
:10373c00445b800061026200e00f52000100320025
:10374c001e00a000445b800062026200e00f520089
:10375c00020032001e20a000010037001e10a00045
:10376c001e027800040078000080fa0000000600b9
:10377c000000fa00dfff0700000278000400780068
:10378c000080fa00000006000200fa00000f78002a
:10379c00145b80009e024200a4b72000848f52006c
:1037ac0009003600145b80009e024200a4b7200082
:1037bc000402ea008482420024b720000482420002
:1037cc001442780003003700145b80001e02420094
:1037dc0014427800044078000080fa0000000600d3
:1037ec000200fa00000f78001e007800e6ff0700c8
:1037fc0000427800044078000080fa0000000600c7
:10380c000000fa00445b800061026200e00f52008d
:10381c000f003a00155b8000045b8000848f52001f
:10382c0005003600145b800084027800045b800085
:10383c000482520007003700145b80008402780079
:10384c00045b8000048252006802420001003700d1
:10385c000002eb00040078000080fa000000060073
:10386c000000fa00e6ff0700000278000400780070
:10387c000080fa00000006000000fa00455b8000a2
:10388c000410200004826200e00f52000f003a0086
:10389c00355b8000245b8000848f5200050036006d
:1038ac00345b800084027800245b80000482520028
:1038bc0007003700345b800084027800245b8000b2
:1038cc000482520068024200010037000002eb0043
:1038dc00040078000080fa00000006000000fa00e6
:1038ec00e5ff070000027800040078000080fa0071
:1038fc00000006000000fa00445b80000402d100c6
:10390c00614262000482fb0004f0a7000402ea009a
:10391c000402ea004f22de000442780004407800e2
:10392c000080fa00000006000000fa00f1ff07001a
:10393c0000427800044078000080fa000000060085
:10394c000000fa00445b80004822de006142620005
:10395c000482fb0004f0a7000402ea000402ea005f
:10396c004f22de0004427800044078000080fa0008
:10397c00000006000000fa00f1ff0700004278008a
:10398c00044078000080fa00000006000000fa00f5
:10399c0014288000040078000080fa000000060063
:1039ac000000fa00f9ff070000027800040078001c
:1039bc000080fa00000006000000fa008480280055
:1039cc00b42888000002eb00c42888000002eb0039
:1039dc00d42888000002eb00e4288800041a200098
:1039ec00f42888000002eb00042988000002eb0098
:1039fc00142988000002eb00242988000002eb0047
:103a0c00342988000002eb00442988000002eb00f6
:103a1c005429880097c0a8001945a800c4a4200008
:103a2c0044528800c4a420003452880044a52000cd
:103a3c002452880044a52000145288004a2aa80069
:103a4c004b2aa8004b0aa9004a0aa9000080fa00d8
:103a5c00000006000000fa00d7ff07000080fa0003
:103a6c00000006000200fa005552800004202000dd
:103a7c0004826200e00f520022003a0087e0a900a5
:103a8c000002eb00040f7800150037001e0fe80051
:103a9c0044528000144278000482fb00d428880031
:103aac00445280000402e8004452880045528000d1
:103abc0044a52000848f520002003a00c4a42000c8
:103acc00445288004b0aa9004552800034528000b1
:103adc00848f520002003a004b2aa8000a003700db
:103aec001e027800e00f520007003c00c528800041
:103afc000420200004826200e00f5200e3ff320039
:103b0c0001003700000000000080fa0000000600f1
:103b1c003600f800809fbe00829fbe00849fbe00ce
:103b2c00869fbe000000fa001c00370087c0a90069
:103b3c00f6518000e428800084427800e493200051
:103b4c0004024300054a7800f5518000e4932000fc
:103b5c000482420014427800ed4f52000c003a00ef
:103b6c00e1932000e09b200042f4070002082000b3
:103b7c008000eb00e09320001ff4070014002000ed
:103b8c00045288000002eb00f45188000700370053
:103b9c00f45180000402e800f4518800c42880002d
:103bac0061026200e00f5200e0ff3a000080fa0070
:103bbc004f03be004f02be004f01be004f00be00bf
:103bcc003600f90000400600841f78000000fa005f
:103bdc00c428800062026200e00f52000100320033
:103bec001825a9008c40a9000080fa004f0278002b
:103bfc00004006000200fa000042eb00044f78007f
:103c0c0024528000144f7800245280000402e800f3
:103c1c002452880025528000c4a52000848f5200b5
:103c2c0002003a0044a5200024528800255280004e
:103c3c0014528000848f520001003a004a2aa800d6
:103c4c004a0aa9001e427800044078000080fa005d
:103c5c00000006000000fa00e6ff070000427800b2
:103c6c00044078000080fa00000006000600fa000c
:103c7c00881f780010079800210798000002eb00bd
:103c8c00040f78000a003700545280006202620070
:103c9c00e00f52000b003a001e0290001e0442007e
:103cac00d4ff070000427800044c78001e0fe80097
:103cbc002e0290009e027800848f5200f2ff390091
:103ccc0001003700000000001e027800040078009c
:103cdc004f0478000080fa00000006000400fa008f
:103cec00000f7800110798009e0090001e007800cd
:103cfc00deff070000027800040078000080fa0064
:103d0c00000006000200fa00004f780034528000d8
:103d1c001e4a7800345280000402e80034528800b5
:103d2c003552800044a52000848f520002003a00d6
:103d3c00c4a42000345288004b2aa90045528000ac
:103d4c0034528000848f520001003a004b0aa800c4
:103d5c000080fa00000006000200fa00004f780014
:103d6c001e407800e7ff07000080fa000000060004
:103d7c000600fa0010079800210798000002eb00db
:103d8c00040f78000b0037005552800004102000ff
:103d9c0004826200e00f52000b003a001e029000f9
:103dac001e024200144278001e0fe8000440780006
:103dbc00d4ff07002e0290009e027800848f5200e0
:103dcc00f1ff390001003700000000001e027800ee
:103ddc00040078000080fa00000006000400fa00dd
:103dec00000f7800110798009e0090001e007800cc
:103dfc00dfff070000027800040078000080fa0062
:103e0c00000006000200fa000002eb00040f78002c
:103e1c00555280000410200004826200e00f520012
:103e2c00010032001e30a0005552800004202000fa
:103e3c0004826200e00f5200010032001e40a0001c
:103e4c005452800061026200e00f52000100320007
:103e5c001e00a0005452800062026200e00f52006b
:103e6c00020032001e20a000010037001e10a0002e
:103e7c001e027800040078000080fa0000000600a2
:103e8c000000fa00dfff0700000278000400780051
:103e9c000080fa00000006000200fa00000f780013
:103eac00245280009e024200c4a52000848f520040
:103ebc0009003600245280009e024200c4a5200056
:103ecc000402ea008482420044a5200004824200dd
:103edc001442780003003700245280001e02420076
:103eec0014427800044078000080fa0000000600bc
:103efc000200fa00000f78001e007800e6ff0700b1
:103f0c0000427800044078000080fa0000000600af
:103f1c000000fa005452800061026200e00f52006f
:103f2c000f003a002552800014528000848f5200fa
:103f3c000500360024528000840278001452800060
:103f4c00048252000700370024528000840278005b
:103f5c0014528000048252006802420001003700b3
:103f6c000002eb00040078000080fa00000006005c
:103f7c000000fa00e6ff0700000278000400780059
:103f8c000080fa00000006000000fa005552800084
:103f9c000410200004826200e00f52000f003a006f
:103fac004552800034528000848f52000500360048
:103fbc004452800084027800345280000482520003
:103fcc00070037004452800084027800345280008d
:103fdc000482520068024200010037000002eb002c
:103fec00040078000080fa00000006000000fa00cf
:103ffc00e5ff070000027800040078000080fa005a
:10400c00000006000000fa00545280000402d100a7
:10401c00614262000482fb0004f0a7000402ea0083
:10402c000402ea004f22de000442780004407800cb
:10403c000080fa00000006000000fa00f1ff070003
:10404c0000427800044078000080fa00000006006e
:10405c000000fa00545280004822de0061426200e7
:10406c000482fb0004f0a7000402ea000402ea0048
:10407c004f22de0004427800044078000080fa00f1
:10408c00000006000000fa00f1ff07000042780073
:10409c00044078000080fa00000006000000fa00de
:1040ac00c4288000040078000080fa00000006009c
:1040bc000000fa00f9ff0700000278000400780005
:1040cc000080fa00000006000000fa00848028003e
:1040dc00642988000002eb00742988000002eb00c0
:1040ec00842988000002eb0094298800a4a02100f8
:1040fc00a42988000002eb00b42988009e40a80087
:10410c002f45a800e490200054488800e49020003b
:10411c00444888006492200034488800649220004f
:10412c00244888000c29a8000d29a8000d09a90015
:10413c000c09a9000080fa00000006000000fa003b
:10414c00e1ff07000080fa00000006000200fa0000
:10415c00654880000420200004826200e00f5200b9
:10416c0022003a008e60a9000002eb00040f7800d8
:10417c00150037001e0fe8005448800014427800e8
:10418c000482fb0084298800544880000402e80063
:10419c00544888005548800064922000848f520057
:1041ac0002003a00e4902000544888000d09a90050
:1041bc005548800044488000848f520002003a0029
:1041cc000d29a8000a0037001e027800e00f5200eb
:1041dc0007003c0075298000042020000482620046
:1041ec00e00f5200e3ff3200010037000000000036
:1041fc000080fa00000006003600f800809fbe0028
:10420c00829fbe00849fbe00869fbe000000fa0005
:10421c00180037008e40a9000648800094298000c1
:10422c00844278000480200004024300054a780090
:10423c00054880000480200004824200144278006b
:10424c00ed4f520008003a00018020000088200049
:10425c0088f2070014002000144888000002eb00cc
:10426c000448880007003700044880000402e80076
:10427c00044888007429800061026200e00f52003b
:10428c00e4ff3a000080fa004f03be004f02be006c
:10429c004f01be004f00be003600f9000040060082
:1042ac000000fa007429800062026200e00f5200e4
:1042bc00010032002e25a9008e20a9000080fa00f2
:1042cc00000006000000fa00f5ff07000080fa006d
:1042dc00000006000200fa000042eb00044f7800d8
:1042ec0034488000144f7800344880000402e80001
:1042fc003448880035488000e4932000848f5200b5
:10430c0002003a006492200034488800354880004e
:10431c0024488000848f520001003a000c29a80028
:10432c000c09a9001e427800044078000080fa00b5
:10433c00000006000000fa00e6ff070000427800cb
:10434c00044078000080fa00000006000600fa0025
:10435c00881f780010079800210798000002eb00d6
:10436c00040f78000a003700644880006202620083
:10437c00e00f52000b003a001e0290001e04420097
:10438c00d4ff070000427800044c78001e0fe800b0
:10439c002e0290009e027800848f5200f2ff3900aa
:1043ac0001003700000000001e02780004007800b5
:1043bc004f0478000080fa00000006000400fa00a8
:1043cc00000f7800110798009e0090001e007800e6
:1043dc00deff070000027800040078000080fa007d
:1043ec00000006000200fa00004f780044488000ec
:1043fc001e4a7800444880000402e80044488800c3
:10440c004548800064922000848f520002003a00dc
:10441c00e4902000444888000d29a90055488000ec
:10442c0044488000848f520001003a000d09a80016
:10443c000080fa00000006000200fa00004f78002d
:10444c001e407800e7ff07000080fa00000006001d
:10445c000600fa0010079800210798000002eb00f4
:10446c00040f78000b003700654880000410200012
:10447c0004826200e00f52000b003a001e02900012
:10448c001e024200144278001e0fe800044078001f
:10449c00d4ff07002e0290009e027800848f5200f9
:1044ac00f1ff390001003700000000001e02780007
:1044bc00040078000080fa00000006000400fa00f6
:1044cc00000f7800110798009e0090001e007800e5
:1044dc00dfff070000027800040078000080fa007b
:1044ec00000006000200fa000002eb00040f780046
:1044fc00654880000410200004826200e00f520026
:10450c00010032001e30a00065488000042020000d
:10451c0004826200e00f5200010032001e40a00035
:10452c006448800061026200e00f5200010032001a
:10453c001e00a0006448800062026200e00f52007e
:10454c00020032001e20a000010037001e10a00047
:10455c001e027800040078000080fa0000000600bb
:10456c000000fa00dfff070000027800040078006a
:10457c000080fa00000006000200fa00000f78002c
:10458c00344880009e024200e4932000848f520045
:10459c0009003600344880009e024200e49320005b
:1045ac000402ea00848242006492200004824200e9
:1045bc001442780003003700344880001e02420089
:1045cc0014427800044078000080fa0000000600d5
:1045dc000200fa00000f78001e007800e6ff0700ca
:1045ec0000427800044078000080fa0000000600c9
:1045fc000000fa006448800061026200e00f520083
:10460c000f003a003548800024488000848f520007
:10461c00050036003448800084027800244880006d
:10462c00048252000700370034488000840278006e
:10463c0024488000048252007802420001003700b6
:10464c000002eb00040078000080fa000000060075
:10465c000000fa00e6ff0700000278000400780072
:10466c000080fa00000006000000fa006548800097
:10467c000410200004826200e00f52000f003a0088
:10468c005548800044488000848f52000500360055
:10469c005448800084027800444880000482520010
:1046ac00070037005448800084027800444880009a
:1046bc000482520078024200010037000002eb0035
:1046cc00040078000080fa00000006000000fa00e8
:1046dc00e5ff070000027800040078000080fa0073
:1046ec00000006000000fa00644880000402d100bb
:1046fc00614262000482fb0004f0a7000402ea009d
:10470c000402ea004f22de000442780004407800e4
:10471c000080fa00000006000000fa00f1ff07001c
:10472c0000427800044078000080fa000000060087
:10473c000000fa00644880004822de0061426200fa
:10474c000482fb0004f0a7000402ea000402ea0061
:10475c004f22de0004427800044078000080fa000a
:10476c00000006000000fa00f1ff0700004278008c
:10477c00044078000080fa00000006000000fa00f7
:10478c0074298000040078000080fa000000060004
:10479c000000fa00f9ff070000027800040078001e
:1047ac000080fa00000006000000fa00140020004f
:1047bc007464880044d12800841f78004bf10700f2
:1047cc008f87e90014d52800841f780047f1070073
:1047dc008f87e90084d72800841f780043f10700f5
:1047ec008f87e90024da2800841f78003ff1070046
:1047fc008f87e90040dc280014f10700240020001a
:10480c007464880044d12800841f780037f10700b5
:10481c008f87e90014d52800841f780033f1070036
:10482c008f87e90084d72800841f78002ff10700b8
:10483c008f87e90014e02800841f78002bf1070013
:10484c008f87e90040dc280000f107000080fa00a7
:10485c00000006000000fa000080fa0000000600cc
:10486c000000fa001400200074648800545d80007d
:10487c00e00f520004003a0030e228008c010700df
:10488c0014002000545d880000242400f100200056
:10489c00bd030700b0e22800850107000080fa0084
:1048ac00000006000000fa00545d8000e00f52008a
:1048bc0004003a0030e228009701070014002000a1
:1048cc00545d8800b0e22800930107000080fa00d4
:1048dc00000006000000fa00545d8000e00f52005a
:1048ec0004003a0030e22800710107001400200097
:1048fc00545d8800b0e228006d0107000080fa00ca
:10490c00000006000800fa00f45a8000e10f520083
:10491c0042003a00c0ad2000b70107000002eb00d6
:10492c00f45a88004200200051e42800c0ad200059
:10493c00ddf0070000027800e00f52002a003a0078
:10494c0014002000545d880054ae2000620020004a
:10495c00840078000e007800a0f0070021032000ee
:10496c0010c2b30030f907000e007800b9f9070047
:10497c008ea1a90000482800e10120008203070055
:10498c008461a80000682900810920007e030700cb
:10499c00a0e428007a0107000e00780078010700d7
:1049ac0010e528007601070000b42400c1042000a3
:1049bc00750307008ea1a800020820008000eb0000
:1049cc00c0ad20008cf00700006829008109200090
:1049dc006d0307002103200010c2b30012f9070079
:1049ec0030e528009bf9070042002000a1e52800d3
:1049fc00c0ad2000acf0070000027800e00f5200c0
:104a0c0006003a0014002000545d880002082000c3
:104a1c008000eb00c0ad200077f007000080fa00aa
:104a2c00000006000800fa0004528000e10f52005a
:104a3c0042003a00e09b20006f0107000002eb00ef
:104a4c00045288004200200051e42800e09b200022
:104a5c0095f0070000027800e00f520022003a00a7
:104a6c0014002000545d8800749c2000620020001b
:104a7c00840078000e00780058f007002103200015
:104a8c0010c6b300e8f807000e00780071f90700b3
:104a9c008ea1a90000242400f10020003a03070095
:104aac008461a80000242400f100200036030700d4
:104abc00f0e52800320107000e00780030010700f5
:104acc0010e528002e01070000482800e101200015
:104adc002d0307008ea1a800020820008000eb0027
:104aec00e09b200044f0070042002000a1e52800d4
:104afc00e09b20006cf0070000027800e00f5200f1
:104b0c000e003a0014002000545d880002082000ba
:104b1c008000eb00e09b200037f0070000682900c4
:104b2c0081092000180307002103200010c6b300e0
:104b3c00bdf8070030e5280046f907000080fa00b0
:104b4c00000006000000fa0014488000e10f52003b
:104b5c0013003a000002eb00144888000088200083
:104b6c00250107000488200014427800e04f520011
:104b7c000b003a002103200000c4b300aaf8070080
:104b8c0060e6280033f9070035ff070045ff0700f2
:104b9c00020820008000eb000088200016f00700bf
:104bac000080fa00000006000000fa000403280050
:104bbc00841288000002eb006412880024a12700f4
:104bcc00741288008460a9009460a8000042eb0075
:104bdc000443780085ba2000864a78000080fa00e9
:104bec00000006000000fa00efff07000080fa004a
:104bfc00000006003600f800809fbe00829fbe00b9
:104c0c00849fbe00869fbe000000fa00480007008b
:104c1c0094ba2000144278000442e800044378005f
:104c2c0095ba2000864a780014c0b300044378007b
:104c3c0085ba2000864a78008460a9000080fa00ba
:104c4c004f03be004f02be004f01be004f00be001e
:104c5c003600f900004006000200fa00000f780050
:104c6c001e027800741288000042eb0004437800a6
:104c7c0085ba2000864a78000080fa000000060001
:104c8c000200fa00000f78001e007800f2ff070007
:104c9c000080fa00000006000000fa007412800088
:104cac00040078000080fa00000006000000fa0002
:104cbc00f9ff070000027800040078000080fa0079
:104ccc00000006000200fa00000f78001e027800b7
:104cdc00641288000042eb000443780085ba20007f
:104cec00864a78000080fa00000006000200fa00f4
:104cfc00000f78001e007800f2ff07000080fa0019
:104d0c00000006000000fa00641280000400780025
:104d1c000080fa00000006000000fa00f9ff07000e
:104d2c0000027800040078000080fa000000060001
:104d3c000000fa00245d80000402e800245d880075
:104d4c00740c80004f22de00044278000404a200a0
:104d5c00614262000482fb004f22dd00760c800071
:104d6c00f5ff27008502630005027200740c8800b1
:104d7c000080fa00000006000000fa000042eb0080
:104d8c000443780085ba2000864a78009460a80015
:104d9c0051e2a8000080fa00000006000000fa00b2
:104dac00f5ff07000080fa00000006000000fa0082
:104dbc0051e2a9009460a9000080fa0000000600ee
:104dcc000000fa00f9ff07000080fa00000006005e
:104ddc000200fa0084ba200014427800044f7800d4
:104dec001e427800e04f5200040032000042eb00fb
:104dfc000443780085ba2000864a78001e42780069
:104e0c00044078000080fa00000006000000fa0060
:104e1c00efff070000427800044078000080fa00a1
:104e2c00000006000000fa0094ba2000144278003a
:104e3c00044078000080fa00000006000000fa0030
:104e4c00f8ff070000427800044078000080fa0068
:104e5c00000006000000fa000042eb00044378005a
:104e6c0095ba2000864a78000080fa0000000600ff
:104e7c000000fa00f7ff07000080fa0000000600af
:104e8c000200fa00004f7800000000001528800096
:104e9c000420200004826200e00f5200fbff3a0065
:104eac001e02fb00242888000080fa000000060087
:104ebc000200fa00000f7800050037001e0278008f
:104ecc001442780004407800edff07001e0fe80044
:104edc001e02780014427800e04f5200f7ff3a00af
:104eec000080fa00000006000200fa00004f780073
:104efc0000000000c528800004202000048262000d
:104f0c00e00f5200fbff3a001e02fb00d428880081
:104f1c000080fa00000006000200fa00000f780082
:104f2c00050037001e027800144278000440780017
:104f3c00edff07001e0fe8001e02780014427800f7
:104f4c00e04f5200f7ff3a000080fa000000060024
:104f5c000200fa00004f7800000000007529800064
:104f6c000420200004826200e00f5200fbff3a0094
:104f7c001e02fb00842988000080fa000000060055
:104f8c000200fa00000f7800050037001e027800be
:104f9c001442780004407800edff07001e0fe80073
:104fac001e02780014427800e04f5200f7ff3a00de
:104fbc000080fa00000006000000fa0014288000af
:104fcc0061026200e00f52000700320034288000ba
:104fdc000442780004437800c5ba2000864a780061
:104fec0014c0b300010037000042eb00044078000d
:104ffc000080fa00000006000400fa001007980078
:10500c001e029000040f7800140037001e0290005e
:10501c0014427800ed4f52000d0032001e02900039
:10502c0014427800ea4f5200090032001e02900030
:10503c00944278001e027800054a78001e0fe800a2
:10504c001e0290000402e8001407980003003700c9
:10505c001e0290000402e800140798001e02900043
:10506c0014427800e04f5200e8ff3a001e0278002c
:10507c008042eb00054a78000080fa000000060030
:10508c000400fa00881f7800100798001e02900098
:10509c00040f7800100037001e02900014427800b4
:1050ac00e04f5200090032001e029000944278003a
:1050bc001e027800054a78001e0fe8001e029000c0
:1050cc000402e80014079800030037001e02900049
:1050dc000402e800140798001e02900014427800a5
:1050ec000404fb001e009000e8ee070000027800ac
:1050fc00840f5400e8ff39004f0478000080fa0058
:04510c000000060099
:020000040000fa
:10511000000800003e010000800000003e09000081
:105120001e010000800000005c0a00001e0100005b
:1051300080000000a80b00000200000080000000ba
:105140007a0b00002a00000080000000a40b000081
:105150000400000080000000aa0b00000200000014
:1051600080000000ac0b0000020000008000000086
:10517000ae0b000002000000820000007f7e0000f5
:10518000b00b000002000000800000008e0c000048
:10519000020000008200000001000000520c00002c
:1051a0002400000082000000940c000000940c0019
:1051b0000900000000020000960c000000960c00a0
:1051c0000e020100000000000000000000000000ce
:1051d0000602020000000000900c00000200000027
:1051e00082000000520c0000920c0000020000003f
:1051f00080000000940c000002000000800000000d
:10520000960c00000200000080000000760c0000f8
:105210001800000082000000286e75006c6c2900e8
:105220000030310032333400353637003839610010
:105230006263640065660000b20b0000a00000001d
:1052400082000000010000000000000000000a00d1
:1052500000000000000000000064000000000000ea
:1052600000000000e8030000000000000000100043
:10527000270000000000000000a0860001000000e0
:105280000000000040420f0000000000000080000d
:1052900096980000000000000000e100f505000005
:1052a0000000000000ca9a003b000000000000005f
:1052b000e40b5400020000000000e80076481700ec
:1052c000000000000010a500d4e80000000000006d
:1052d000a0724e0018090000000040007a10f30090
:1052e0005a0000000080c600a47e8d00030000006c
:1052f00000c16f00f2862300000000008a5d780084
:105300004563010000006400a7b3b600e00d000093
:1053100000e889000423c7008a00000000000000a4
:020000040000fa
:105320000000fa00080107008e01a9008e21a900e3
:105330008e41a9008e61a90012f70700006a2800bb
:105340001100200013010700750007000068290004
:10535000810920000f0107005a000700140c80008b
:1053600070026200e00f520025003a00803e2000eb
:105370000100200007010700140c80007002620089
:10538000e00f52001e003a0064ba20001442780078
:105390000404a200e04f5200140032008ea1a900c4
:1053a00000242400f1002000fa0007008461a80016
:1053b00000242400f1002000f60007002bfd070068
:1053c0003bfd0700650c800004002200048262009f
:1053d000e00f5200010032008ea1a80014c0b300fb
:1053e0000443780065ba2000864a78002103200033
:1053f00000c4b3008ff60700c0f8280018f70700b4
:10540000140c800070026200e00f520012003200a3
:10541000803e200001002000de000700140c800008
:1054200070026200e00f52000b0032000042eb00fd
:105430000443780065ba2000864a78008461a90098
:105440008ea1a8002103200000c4b30079f6070054
:1054500010fa280002f707002dfd070074fd070071
:10546000bbfd0700bdff37000000fa00210320004c
:105470000040eb006ff60700c0e72800f8f60700d1
:105480002103200000c4b3006af6070010e92800d9
:10549000f3f607002103200040c1b30065f60700c2
:1054a00060ea2800eef607002103200040c5b300a3
:1054b00060f60700b0eb2800e9f607000080fa006c
:1054c000000006000000fa00210320000040eb006d
:1054d00058f6070000ed2800e1f607002103200040
:1054e00000c4b30053f6070040ee2800dcf60700c6
:1054f0002103200040c1b3004ef6070080ef2800d2
:10550000d7f607002103200040c5b30049f6070085
:10551000c0f02800d2f607000080fa000000060064
:105520000200fa0004f22800040f78002103200092
:105530000040eb003ff6070050f32800c8f60700d4
:105540002103200000c4b3003af60700a0f42800ad
:10555000c3f607002103200040c1b30035f6070061
:1055600010e92800bef607002103200040c5b30063
:1055700030f607001e007800b9f607000080fa0038
:10558000000006000000fa000002eb00240c880076
:1055900074002000040c880004022000740c8800b1
:1055a000f48c2600540c880074002000440c880001
:1055b00034042400940c880005088000f40b2000bb
:1055c0000483620064042000750520000710200099
:1055d000844b7800854b7800864b7800751d8000e1
:1055e000f40f2c0084826200044020000502720047
:1055f000741d8800851d800004fc2f000482620059
:105600007400b300841d8800f51e800004fc2f0088
:10561000048262003400b300f41e8800f51e80008e
:10562000f40f2c0084826200043021000502720015
:10563000f41e8800051f800004fc2f000482620015
:105640005400b300041f8800951d800004fc2f0047
:1056500004826200b400b300941d88000508800035
:105660000404200005037200640420007505200076
:1056700007102000844b7800854b7800864b78001b
:105680000080fa00000006000000fa0024058000f7
:1056900004c0a10004d0a00004e0a00024058800fc
:1056a0004405800004c0a00004d0a10004e0a100d3
:1056b00044058800540580000400a0000410a100e7
:1056c0000420a10054058800240680000440a000a6
:1056d0000450a1000460a100240688009405800005
:1056e0000480a0000490a10004a0a10094058800fb
:1056f000e40580000480a0000490a10004a0a100a3
:10570000e40588009405800004c0a00004d0a10036
:1057100004e0a10094058800240680000480a00015
:105720000490a10004a0a100240688006406800063
:105730000480a0000490a10004a0a10064068800d9
:105740000080fa00000006000000fa0009000700cf
:105750008cff0700ccff0700cef6070099f8070082
:105760005cfa070013fd070000f207000080fa0052
:10577000000006000000fa0004122300140888004c
:105780000002eb00340888000021a9000080fa0024
:04579000000006000f
:020000040000fa
:10579400f03fb1000180b10006003500ee030900be
:1057a40000000000403fb1000180b100fbff3d005c
:1057b4001000b000203fb000020035000080090056
:0857c4000000000000000600d7
:020000040000fa
:020000040002f8
:04aff000fffb000063
:020000040000fa
:020000040002f8
:04aff400fff6000064
:020000040000fa
:020000040002f8
:04aff8009fb90000fd
:020000040000fa
:020000040002f8
:04affc003f3d0000d5
:00000001FF
